{
  "contractName": "Sembank",
  "abi": [
    {
      "inputs": [
        {
          "internalType": "address",
          "name": "_semcoinAddress",
          "type": "address"
        }
      ],
      "stateMutability": "nonpayable",
      "type": "constructor"
    },
    {
      "anonymous": false,
      "inputs": [
        {
          "indexed": true,
          "internalType": "address",
          "name": "account",
          "type": "address"
        },
        {
          "indexed": false,
          "internalType": "uint256",
          "name": "amount",
          "type": "uint256"
        }
      ],
      "name": "Deposited",
      "type": "event"
    },
    {
      "anonymous": false,
      "inputs": [
        {
          "indexed": true,
          "internalType": "address",
          "name": "account",
          "type": "address"
        },
        {
          "indexed": false,
          "internalType": "uint256",
          "name": "amount",
          "type": "uint256"
        }
      ],
      "name": "Withdrawn",
      "type": "event"
    },
    {
      "inputs": [],
      "name": "depositFeePercentage",
      "outputs": [
        {
          "internalType": "uint256",
          "name": "",
          "type": "uint256"
        }
      ],
      "stateMutability": "view",
      "type": "function",
      "constant": true
    },
    {
      "inputs": [],
      "name": "ethPool",
      "outputs": [
        {
          "internalType": "uint256",
          "name": "",
          "type": "uint256"
        }
      ],
      "stateMutability": "view",
      "type": "function",
      "constant": true
    },
    {
      "inputs": [],
      "name": "feePot",
      "outputs": [
        {
          "internalType": "uint256",
          "name": "",
          "type": "uint256"
        }
      ],
      "stateMutability": "view",
      "type": "function",
      "constant": true
    },
    {
      "inputs": [],
      "name": "semcoinAddress",
      "outputs": [
        {
          "internalType": "address",
          "name": "",
          "type": "address"
        }
      ],
      "stateMutability": "view",
      "type": "function",
      "constant": true
    },
    {
      "inputs": [],
      "name": "tokensPerEth",
      "outputs": [
        {
          "internalType": "uint256",
          "name": "",
          "type": "uint256"
        }
      ],
      "stateMutability": "view",
      "type": "function",
      "constant": true
    },
    {
      "inputs": [],
      "name": "isOwner",
      "outputs": [
        {
          "internalType": "bool",
          "name": "",
          "type": "bool"
        }
      ],
      "stateMutability": "view",
      "type": "function",
      "constant": true
    },
    {
      "inputs": [],
      "name": "deposit",
      "outputs": [],
      "stateMutability": "payable",
      "type": "function",
      "payable": true
    },
    {
      "inputs": [
        {
          "internalType": "uint256",
          "name": "amount",
          "type": "uint256"
        }
      ],
      "name": "withdraw",
      "outputs": [],
      "stateMutability": "nonpayable",
      "type": "function"
    },
    {
      "inputs": [],
      "name": "withdrawFeePot",
      "outputs": [],
      "stateMutability": "payable",
      "type": "function",
      "payable": true
    }
  ],
  "bytecode": "0x60806040526000600355600060045534801561001a57600080fd5b50604051610efd380380610efd833981810160405281019061003c9190610189565b80600160006101000a81548173ffffffffffffffffffffffffffffffffffffffff021916908373ffffffffffffffffffffffffffffffffffffffff160217905550600160009054906101000a900473ffffffffffffffffffffffffffffffffffffffff16600260006101000a81548173ffffffffffffffffffffffffffffffffffffffff021916908373ffffffffffffffffffffffffffffffffffffffff160217905550336000806101000a81548173ffffffffffffffffffffffffffffffffffffffff021916908373ffffffffffffffffffffffffffffffffffffffff160217905550506101b6565b600080fd5b600073ffffffffffffffffffffffffffffffffffffffff82169050919050565b60006101568261012b565b9050919050565b6101668161014b565b811461017157600080fd5b50565b6000815190506101838161015d565b92915050565b60006020828403121561019f5761019e610126565b5b60006101ad84828501610174565b91505092915050565b610d38806101c56000396000f3fe6080604052600436106100865760003560e01c8063c96efb5111610059578063c96efb5114610135578063cbdd69b51461013f578063cca237b61461016a578063d0e30db014610195578063f16673a41461019f57610086565b80632e1a7d4d1461008b5780634c9f66c7146100b45780638f32d59b146100df57806392bd97f81461010a575b600080fd5b34801561009757600080fd5b506100b260048036038101906100ad9190610762565b6101ca565b005b3480156100c057600080fd5b506100c961040a565b6040516100d6919061079e565b60405180910390f35b3480156100eb57600080fd5b506100f4610410565b60405161010191906107d4565b60405180910390f35b34801561011657600080fd5b5061011f610466565b60405161012c9190610830565b60405180910390f35b61013d61048c565b005b34801561014b57600080fd5b5061015461056d565b604051610161919061079e565b60405180910390f35b34801561017657600080fd5b5061017f610573565b60405161018c919061079e565b60405180910390f35b61019d610578565b005b3480156101ab57600080fd5b506101b4610721565b6040516101c1919061079e565b60405180910390f35b6000811161020d576040517f08c379a0000000000000000000000000000000000000000000000000000000008152600401610204906108ce565b60405180910390fd5b6000612710670de0b6b3a764000083610226919061091d565b610230919061098e565b9050600454811115610277576040517f08c379a000000000000000000000000000000000000000000000000000000000815260040161026e90610a31565b60405180910390fd5b600160009054906101000a900473ffffffffffffffffffffffffffffffffffffffff1673ffffffffffffffffffffffffffffffffffffffff166323b872dd3330856040518463ffffffff1660e01b81526004016102d693929190610a51565b6020604051808303816000875af11580156102f5573d6000803e3d6000fd5b505050506040513d601f19601f820116820180604052508101906103199190610ab4565b610358576040517f08c379a000000000000000000000000000000000000000000000000000000000815260040161034f90610b2d565b60405180910390fd5b806004600082825461036a9190610b4d565b925050819055503373ffffffffffffffffffffffffffffffffffffffff166108fc829081150290604051600060405180830381858888f193505050501580156103b7573d6000803e3d6000fd5b503373ffffffffffffffffffffffffffffffffffffffff167f7084f5476618d8e60b11ef0d7d3f06914655adb8793e28ff7f018d4c76d505d5826040516103fe919061079e565b60405180910390a25050565b60035481565b60003373ffffffffffffffffffffffffffffffffffffffff1660008054906101000a900473ffffffffffffffffffffffffffffffffffffffff1673ffffffffffffffffffffffffffffffffffffffff1614905090565b600160009054906101000a900473ffffffffffffffffffffffffffffffffffffffff1681565b60008054906101000a900473ffffffffffffffffffffffffffffffffffffffff1673ffffffffffffffffffffffffffffffffffffffff163373ffffffffffffffffffffffffffffffffffffffff161461051a576040517f08c379a000000000000000000000000000000000000000000000000000000000815260040161051190610bf3565b60405180910390fd5b3373ffffffffffffffffffffffffffffffffffffffff166108fc6003549081150290604051600060405180830381858888f19350505050158015610562573d6000803e3d6000fd5b506000600381905550565b61271081565b600581565b600034116105bb576040517f08c379a00000000000000000000000000000000000000000000000000000000081526004016105b290610c85565b60405180910390fd5b600060646005346105cc919061091d565b6105d6919061098e565b905080600360008282546105ea9190610ca5565b92505081905550600081346105ff9190610b4d565b905080600460008282546106139190610ca5565b925050819055506000670de0b6b3a764000061271083610633919061091d565b61063d919061098e565b9050600260009054906101000a900473ffffffffffffffffffffffffffffffffffffffff1673ffffffffffffffffffffffffffffffffffffffff166340c10f1933836040518363ffffffff1660e01b815260040161069c929190610cd9565b600060405180830381600087803b1580156106b657600080fd5b505af11580156106ca573d6000803e3d6000fd5b505050503373ffffffffffffffffffffffffffffffffffffffff167f2da466a7b24304f47e87fa2e1e5a81b9831ce54fec19055ce277ca2f39ba42c483604051610714919061079e565b60405180910390a2505050565b60045481565b600080fd5b6000819050919050565b61073f8161072c565b811461074a57600080fd5b50565b60008135905061075c81610736565b92915050565b60006020828403121561077857610777610727565b5b60006107868482850161074d565b91505092915050565b6107988161072c565b82525050565b60006020820190506107b3600083018461078f565b92915050565b60008115159050919050565b6107ce816107b9565b82525050565b60006020820190506107e960008301846107c5565b92915050565b600073ffffffffffffffffffffffffffffffffffffffff82169050919050565b600061081a826107ef565b9050919050565b61082a8161080f565b82525050565b60006020820190506108456000830184610821565b92915050565b600082825260208201905092915050565b7f5769746864726177616c20616d6f756e74206d7573742062652067726561746560008201527f72207468616e20302e0000000000000000000000000000000000000000000000602082015250565b60006108b860298361084b565b91506108c38261085c565b604082019050919050565b600060208201905081810360008301526108e7816108ab565b9050919050565b7f4e487b7100000000000000000000000000000000000000000000000000000000600052601160045260246000fd5b60006109288261072c565b91506109338361072c565b92508282026109418161072c565b91508282048414831517610958576109576108ee565b5b5092915050565b7f4e487b7100000000000000000000000000000000000000000000000000000000600052601260045260246000fd5b60006109998261072c565b91506109a48361072c565b9250826109b4576109b361095f565b5b828204905092915050565b7f496e73756666696369656e742065746820696e20706f6f6c2e20506c6561736560008201527f20636f6e746163742061646d696e2e0000000000000000000000000000000000602082015250565b6000610a1b602f8361084b565b9150610a26826109bf565b604082019050919050565b60006020820190508181036000830152610a4a81610a0e565b9050919050565b6000606082019050610a666000830186610821565b610a736020830185610821565b610a80604083018461078f565b949350505050565b610a91816107b9565b8114610a9c57600080fd5b50565b600081519050610aae81610a88565b92915050565b600060208284031215610aca57610ac9610727565b5b6000610ad884828501610a9f565b91505092915050565b7f436f756c64206e6f742072657475726e20746f6b656e732e0000000000000000600082015250565b6000610b1760188361084b565b9150610b2282610ae1565b602082019050919050565b60006020820190508181036000830152610b4681610b0a565b9050919050565b6000610b588261072c565b9150610b638361072c565b9250828203905081811115610b7b57610b7a6108ee565b5b92915050565b7f43616e206f6e6c792062652077697468647261776e20627920746865206f776e60008201527f65722e0000000000000000000000000000000000000000000000000000000000602082015250565b6000610bdd60238361084b565b9150610be882610b81565b604082019050919050565b60006020820190508181036000830152610c0c81610bd0565b9050919050565b7f4465706f73697420616d6f756e74206d7573742062652067726561746572207460008201527f68616e2030000000000000000000000000000000000000000000000000000000602082015250565b6000610c6f60258361084b565b9150610c7a82610c13565b604082019050919050565b60006020820190508181036000830152610c9e81610c62565b9050919050565b6000610cb08261072c565b9150610cbb8361072c565b9250828201905080821115610cd357610cd26108ee565b5b92915050565b6000604082019050610cee6000830185610821565b610cfb602083018461078f565b939250505056fea26469706673582212207a5f4a98972d0a62fe967cb7878d3f85001cb67947bf8c0be4210b25027bcaba64736f6c63430008140033",
  "immutableReferences": {},
  "source": "// SPDX-License-Identifier: MIT\r\npragma solidity ^0.8.20;\r\n\r\nimport \"@openzeppelin/contracts/token/ERC20/ERC20.sol\";\r\n\r\ninterface ISemcoin {\r\n    function mint(address to, uint256 amount) external;\r\n}\r\n\r\ncontract Sembank {\r\n    // The address of the contract owner\r\n    address owner;\r\n\r\n    function isOwner() public view returns (bool) {\r\n        return owner == msg.sender;\r\n    }\r\n\r\n    // The contract address of Semcoin\r\n    address public semcoinAddress;\r\n\r\n    // The interface of Semcoin\r\n    ISemcoin isemcoin;\r\n\r\n    // The value of eth taken from deposits as a fee\r\n    uint256 public feePot = 0;\r\n\r\n    // The total pool of eth for users trading out of semcoin and back to eth.\r\n    uint256 public ethPool = 0;\r\n\r\n    // Tokens per eth\r\n    uint256 public constant tokensPerEth = 10000;\r\n\r\n    // What % of deposits goes to the feePot\r\n    uint256 public constant depositFeePercentage = 5;\r\n\r\n    // Events\r\n    event Deposited(address indexed account, uint256 amount);\r\n    event Withdrawn(address indexed account, uint256 amount);\r\n\r\n    constructor(address _semcoinAddress) {\r\n        semcoinAddress = _semcoinAddress;\r\n        isemcoin = ISemcoin(semcoinAddress);\r\n        owner = msg.sender;\r\n    }\r\n\r\n    function deposit() public payable {\r\n        require(msg.value > 0, \"Deposit amount must be greater than 0\");\r\n\r\n        uint256 fee = (msg.value * depositFeePercentage) / 100;\r\n        feePot += fee;\r\n\r\n        uint256 depositValue = msg.value - fee;\r\n        ethPool += depositValue;\r\n\r\n        uint256 tokenAmount = (depositValue * tokensPerEth) / 1 ether;\r\n        isemcoin.mint(msg.sender, tokenAmount);\r\n        emit Deposited(msg.sender, depositValue);\r\n    }\r\n\r\n    function withdraw(uint256 amount) public {\r\n        require(amount > 0, \"Withdrawal amount must be greater than 0.\");\r\n\r\n        uint256 ethAmount = (amount * 1 ether) / tokensPerEth;\r\n        require(\r\n            ethAmount <= ethPool,\r\n            \"Insufficient eth in pool. Please contact admin.\"\r\n        );\r\n\r\n        require(\r\n            IERC20(semcoinAddress).transferFrom(\r\n                msg.sender,\r\n                address(this),\r\n                amount\r\n            ),\r\n            \"Could not return tokens.\"\r\n        );\r\n\r\n        ethPool -= ethAmount;\r\n\r\n        payable(msg.sender).transfer(ethAmount);\r\n\r\n        emit Withdrawn(msg.sender, ethAmount);\r\n    }\r\n\r\n    function withdrawFeePot() public payable {\r\n        require(msg.sender == owner, \"Can only be withdrawn by the owner.\");\r\n        payable(msg.sender).transfer(feePot);\r\n        feePot = 0;\r\n    }\r\n}\r\n",
  "sourcePath": "C:\\Users\\Sean\\Desktop\\Blockchain\\Bank\\contracts\\Sembank.sol",
  "compiler": {
    "name": "solc",
    "version": "0.8.20+commit.a1b79de6.Emscripten.clang"
  },
  "schemaVersion": "3.4.16",
  "updatedAt": "2023-12-10T07:01:20.416Z",
  "networkType": "ethereum",
  "devdoc": {
    "kind": "dev",
    "methods": {},
    "version": 1
  },
  "userdoc": {
    "kind": "user",
    "methods": {},
    "version": 1
  }
}